:020000040800F2
:1000000058200020DD010008010D0008E30200086F
:10001000E30200082B040008750E00080000000031
:10002000000000000000000000000000030D0008B8
:100030002D040008000000002F020008050D000834
:10004000F7010008F7010008F7010008F7010008B0
:10005000F7010008F7010008F7010008F7010008A0
:10006000F7010008F7010008F7010008F701000890
:10007000F7010008F7010008F7010008F701000880
:10008000F7010008F7010008F7010008F701000870
:10009000F7010008F7010008F7010008F701000860
:1000A000F7010008F7010008F7010008F701000850
:1000B000F7010008F7010008F7010008F701000840
:1000C000F7010008F7010008F7010008F701000830
:1000D000F7010008F7010008F7010008F701000820
:1000E000F7010008F7010008F7010008F701000810
:1000F000F7010008F7010008F7010008F701000800
:10010000F7010008F7010008F7010008F7010008EF
:10011000F7010008F7010008F7010008F7010008DF
:10012000F7010008F7010008F7010008F7010008CF
:10013000F7010008F7010008F7010008F7010008BF
:10014000F7010008F7010008F7010008F7010008AF
:10015000F7010008F7010008F7010008F70100089F
:10016000F7010008F7010008F7010008F70100088F
:10017000F7010008F7010008F7010008000000007F
:10018000F7010008F7010008F7010008F70100086F
:10019000F7010008F7010008F7010008F70100085F
:1001A000F7010008F7010008F7010008F70100084F
:1001B000F7010008F7010008F7010008F70100083F
:1001C000F7010008F7010008DFF80CD000F014F97F
:1001D000004800471D0400085820002006488047BA
:1001E00006480047FEE7FEE7FEE7FEE7FEE7FEE71C
:1001F000FEE7FEE7FEE7FEE7210E0008C901000862
:10020000EFF3108072B6704780F310887047434A4E
:100210001368012B04D04FF001031360404A1060B3
:10022000404A116040484FF0805101607047EFF341
:10023000108272B63948016851B34FF00001016075
:100240003748016891B1EFF309811EF0100F08BF24
:1002500021ED108B21E9F00F4FF000041EF0100F7C
:1002600008BF012441F8044D006801602D49096868
:10027000096808C9B1E8F00F002B18BFB1EC108B6A
:1002800081F309884EF0100E002B18BF2EF0100ECF
:1002900082F310884EF0040E704722490860EFF395
:1002A000148222F0040282F314881D494FF00000EA
:1002B00008601A494FF0010008601C484FF47F01A4
:1002C000D0F8002041EA0201016017484FF0805148
:1002D000016017480068006880F3088861B662B65C
:1002E00070471EF0040F0CBFEFF30880EFF3098096
:1002F00020E9F00F40F804ED40F804ED1EF0040F83
:100300000CBF80F3088880F3098800B501F08CFBEE
:100310005DF804EB4EF0040E70470000240100204D
:100320001C0100202001002004ED00E020ED00E091
:1003300008ED00E02DE9F05F0546002092469B465F
:1003400088460646814640241BE0284641464746EB
:10035000224600F041F853465A46C01A914110D344
:1003600011461846224600F028F82D1A67EB0108BE
:100370004F4622460120002100F01FF817EB00092C
:100380004E41201EA4F10104DFDC484631462A46D6
:100390004346BDE8F09FD2B201E000F8012B491EB0
:1003A000FBD270470022F6E710B513460A46044612
:1003B0001946FFF7F0FF204610BD202A04DB203A43
:1003C00000FA02F1002070479140C2F1200320FAA8
:1003D00003F3194390407047202A04DB203A21FAA6
:1003E00002F00021704721FA02F3D040C2F120024E
:1003F0009140084319467047064C074D06E0E068F7
:1004000040F0010394E8070098471034AC42F6D35B
:10041000FFF7DEFE303D0008503D000810B5FFF745
:10042000EFFE03F077F8002010BDFEE770470000F4
:100430002DE9F84FDFF89CE100224FF001084FF062
:10044000030B4FF00F0A00BF0B6808FA02F42340B9
:10045000A34271D14D68022D01D0122D0FD1D508C4
:100460000E69570700EB8505A9462D6AFF0E0AFAAB
:1004700007FCBE4025EA0C052E43C9F820600F7921
:10048000550006680BFA05FC07F0030726EA0C0680
:10049000AF40374307604E68012E05D0022E03D0CF
:1004A000112E01D0122E0ED18668CF6826EA0C06D6
:1004B000AF403743876046680F79A643C7F30017FC
:1004C000974037434760C4688E6824EA0C04AE4006
:1004D0002643C6604C68E40075D53F4C256845F45A
:1004E00080452560246822F00306950704F48044C3
:1004F00000943A4C2D0F2644D6F80848DFF8E0C0A7
:100500000AFA05F7604524EA070401D100272EE026
:10051000344FB84201D1012729E0334FB84201D10D
:10052000022724E0314FB84201D103271FE0304FAA
:10053000B84202D104271AE045E02E4FB84201D15B
:10054000052714E02C4FB84201D106270FE02B4FAE
:10055000B84201D107270AE0294FB84201D1082744
:1005600005E0284FB84201D1092700E00A27AF4033
:1005700027437546C6F808784E68DEF80040F60353
:1005800024EA030400D51C43124E2C60361D4D682E
:100590003468AD0324EA030400D51C430D4F3460D6
:1005A00008374D683C68ED0224EA030400D51C437B
:1005B000084D3C600C354E682C68B60224EA0304F2
:1005C00000D51C432C60521C102AFFF43DAFBDE83F
:1005D000F88F0000003C01404438024000300140E8
:1005E000000002400004024000080240000C0240EB
:1005F000001002400014024000180240001C02409B
:1006000000200240002402400AB1816170470904C1
:10061000FBE70000014880687047000000000020F0
:10062000094810B5016841F400710160016841F4A6
:1006300080710160032000F061F8002000F006F8EE
:1006400000F024F8002010BD003C024070B50D4DB4
:1006500004464FF47A700C4A29781268B0FBF1F026
:10066000B2FBF0F000F0F6FA48B9102C07D20022E5
:100670002146501E00F022F800206C6070BD012061
:1006800070BD0000000000200C0000200A4808B5E2
:10069000016841F080510160006800F080500090D6
:1006A0000548001D016841F480410160006800F4C4
:1006B0008040009008BD0000403802400E4BF0B46E
:1006C0001B680D46C3F30223C3F10706042E00D9AD
:1006D0000426191D072901D2002300E0DB1E012496
:1006E00004FA06F19C40491E2940641E99401440BA
:1006F0002143F0BC00F0BFBB0CED00E0064900F068
:10070000070210B54FF6FF040868044B204040EA8A
:1007100002201843086010BD0CED00E00000FA054F
:100720001848F8B5016841F0805101600068164C26
:1007300000F080500090206840F480302060FFF787
:1007400069FF4FF47A76054605E000BFFFF762FFC8
:10075000401BB0420FD86068C003F7D5206840F452
:1007600000302060FFF756FF054606E0FFF752FF16
:10077000401BB04201D90320F8BD60688003F5D565
:100780000020F8BD40380240007000402DE9F047DD
:1007900005000F4663D0444E306800F00F00B842A9
:1007A00009D2306820F00F0038433060306800F024
:1007B0000F00B84253D128683C4C810712D540073E
:1007C00003D5206840F4E05020602878000703D566
:1007D000206840F460402060A968206820F0F000A4
:1007E000084320602878C0072AD030496868083953
:1007F000012810D00968022810D0890700292EDAB4
:10080000216821F0030101432160FFF703FF8046C7
:1008100041F288390DE009688903EFE78901EDE7C6
:10082000FFF7F8FEA0EB0801494502D90320BDE817
:10083000F0876868216801F00C01B1EB800FEFD1FF
:10084000306800F00F00B8420BD9306820F00F007C
:1008500038433060306800F00F00B84201D001200A
:10086000E5E72878400705D5E968206820F4E050DE
:10087000084320602878000706D52869216821F4FC
:10088000604141EAC000206000F016F82168084A83
:10089000C1F30311515CC840064908600020FFF70E
:1008A000D5FE0020C3E70000003C024008380240AB
:1008B000663500080C000020154910B51548096878
:1008C00011F00C0213D01449042A0FD0082A0ED1BB
:1008D0000F4C241F2268236802F03F025B0207D5F9
:1008E0002068C0F38810A0FB010106E0084610BD97
:1008F0002168C1F38811A1FB00010023FFF71AFD55
:100900002168C1F30141491C4900B0FBF1F010BD61
:10091000083802400024F40040787D012DE9F84FAA
:1009200005004FF000076ED02878DFF81C93A9F17E
:10093000040AC007AAF104044CD0D9F800104846B4
:10094000C1F38101012908D00068C0F381000228A9
:100950000AD1DAF80000400206D52068800339D5B4
:1009600068680028DFD035E06868B0F5803F0BD0BC
:1009700010B1B0F5A02F11D0206820F48030206095
:10098000206820F4802002E0206840F4803020605D
:10099000686890B1FFF73EFE06460AE0206840F422
:1009A00080202060F0E700BFFFF734FE801B642842
:1009B00072D820688003F7D50CE0FFF72BFE0646BF
:1009C00005E000BFFFF726FE801B6428F0D82068F2
:1009D0008003F7D42878800742D5D9F8001048461C
:1009E00011F00C0F08D00068C0F3810002280BD171
:1009F000DAF80000400207D42068800718D5E868BC
:100A0000012800D114E01CE1E8680028206817D014
:100A100040F001002060FFF7FDFD064605E000BF45
:100A2000FFF7F8FD801B0228C2D820688007F7D5A1
:100A30002869216821F0F80141EAC00020600FE038
:100A400020F001002060FFF7E5FD064605E000BF4D
:100A5000FFF7E0FD801B02281ED820688007F7D42E
:100A60002878000729D5784869696C3000298046C4
:100A7000016812D041F001010160FFF7CBFD06468D
:100A800005E000BFFFF7C6FD801B022804D8D8F898
:100A900000008007F6D510E089E021F00101016037
:100AA000FFF7B8FD064604E0FFF7B4FD801B0228FF
:100AB0007DD8D8F800008007F6D4287840076BD599
:100AC000DFF8848108F13808D8F80000C0000BD4A2
:100AD000D8F8001041F08051C8F80010D8F8000094
:100AE000012700F08050009058480168C90512D4D1
:100AF0000168834641F480710160FFF78BFD064673
:100B000005E000BFFFF786FD801B64284FD8DBF8A7
:100B10000000C005F6D54C4EA868683601280AD0FA
:100B200008B1052811D0306820F00100306030682D
:100B300020F0040002E0306840F001003060A86856
:100B4000A0B1FFF767FD83460CE0306840F0040079
:100B50003060F0E7FFF75EFDA0EB0B0141F288305B
:100B6000814266D830688007F4D50EE0FFF752FD69
:100B7000834607E0FFF74EFDA0EB0B0141F2883002
:100B8000814256D830688007F4D42FB1D8F80010CD
:100B900021F08051C8F80010A869C8B3D9F8001036
:100BA000C1F3810102294CD00228206800E040E016
:100BB00020F08070206003D0FFF72CFD05463BE05D
:100BC000FFF728FD064604E0FFF724FD801B0228FE
:100BD0002FD820688001F7D4D5E90962D5E907014B
:100BE0001B4B570895F82C20084303EB074343EAB7
:100BF0008611084340EA026040F00050CAF8000045
:100C0000206840F080702060FFF704FD054606E094
:100C100015E000BFFFF7FEFC401B022809D8206842
:100C20008001F7D50BE000BFFFF7F4FC401B022862
:100C300002D90320BDE8F88F20688001F4D4002099
:100C4000F8E70120F6E70000083802400070004095
:100C50000000FFFF401EB0F1807F10B501D30120DE
:100C600010BD4FF0E02460610F21601700F003F920
:100C70000020A0610721216110BD000070B586B081
:100C800014216846FFF78EFB1948016841F0040102
:100C90000160016801F004010591016841F0020161
:100CA0000160016801F002010591016841F0010154
:100CB0000160006801220F4E812100F001000590C3
:100CC0003046FFF7A1FC0025694602240294200368
:100CD000CDE900050848FFF7ABFB81200394012113
:100CE0008DE8230069463046FFF7A2FB06B070BDD1
:100CF000303802400004024000080240704770474C
:100D00007047704710B500F0B3FF02F083F8BDE8FC
:100D1000104000F0C5BF000030B593B030216846E8
:100D2000FFF740FB14210CA8FFF73CFB19480168B2
:100D300041F080510160006800F080501190164829
:100D4000016821F4404141F48041016000680224BF
:100D50000121009400F44040119010200025C02291
:100D6000CDE9031008A9CDE9064581E815006846DC
:100D70000B94FFF7D3FDFFF7D3FC0CA90F2081E8FC
:100D8000310003210F950CA81095FFF7FFFC13B05D
:100D900030BD0000403802400070004070B51B4C70
:100DA0001B4A1C48216811F00C0104D01A4D04297B
:100DB00003D0082903D002601EE005601CE013493F
:100DC000091F0E680B6803F03F03C6F380562EB16F
:100DD0000E68B5FBF3F2C6F3881304E00D68B2FBAE
:100DE000F3F2C5F3881309685A43C1F30141491C62
:100DF0004900B2FBF1F101602168084B0268C1F3C0
:100E00000311595CCA40026070BD000008380240FE
:100E10000024F4000C00002040787D0166350008B5
:100E2000104A30B51048146800210F4B44F4700488
:100E30001460083305680D4A0D4C45F00105056046
:100E400019600368051D1340074A03600C322C60CB
:100E50000568E305034C25F480250560803C11609E
:100E6000236030BD88ED00E000380240FFFFF6FE51
:100E700010300024FEE7090700284FEA116104DB67
:100E800000F1E02080F80014704700F00F0000F13E
:100E9000E02080F8141D7047002807D00E4910F09C
:100EA000FF0F04D051FA80F00078401C704710F416
:100EB0007F4F04D0C0F30720085C0930704710F45E
:100EC0007F0F04D0C0F30740085C1130704701EB7E
:100ED00010600078193070476038000802E008C8D8
:100EE000121F08C1002AFAD170477047002001E0A4
:100EF00001C1121F002AFBD170470000034801689E
:100F0000814201D00120704700207047F00000208E
:100F100010B5040004D111494B2211A000F04EFA83
:100F2000A06A0178232906D1E169814203D9E26AE6
:100F300002448A4208D20FA0214600F0F5FEFFF7D6
:100F40005FF90028FDD110BD20308142FBD8214639
:100F5000BDE810400EA000F0E7BE00003E3A0008D9
:100F600074687265616420213D2052545F4E554C77
:100F70004C0000007468726561643A2573207374D4
:100F800061636B206F766572666C6F770A00000094
:100F90007761726E696E673A20257320737461639E
:100FA0006B20697320636C6F736520746F207468A5
:100FB0006520626F74746F6D206F66207374616357
:100FC0006B20616464726573732E0A002DE9FC4125
:100FD0001F4604461430DDE90831DDE90A6540604A
:100FE00000601846C4E90827C4E90A310A462321EB
:100FF00000F0EAFF04F120000FC81A44144B121F3E
:1010000000F01AFE202EE06104D31249962212A0AD
:1010100000F0D4F984F83660002084F83560234667
:1010200065641946A063A564206384F83400A06752
:10103000E067124A0090019004F14C0002F000F8C1
:101040000F48816809B1204688470020BDE8FC812F
:10105000252900088C3A00087072696F72697479EA
:10106000203C2052545F5448524541445F505249FD
:101070004F524954595F4D4158000000F52C00086B
:10108000F800002030B50025039C24F001044472D0
:101090001C3080E82E0008384060006030BDD0E988
:1010A00005124A60F0E90512116040600060704767
:1010B000BFF34F8FBFF36F8F1F4900200860BFF34E
:1010C0004F8FBFF36F8F1D4A116841F400311160DB
:1010D000BFF34F8FBFF36F8F184970310860BFF3B4
:1010E0004F8F081F43F6FF740068134D1035C0F38F
:1010F0004E31C0F3C90304EA4116184646EA807728
:101100002F60401EFAD2491EF5D2BFF34F8F1068F0
:1011100040F480301060BFF34F8FBFF36F8FFFF745
:101120007FFAFFF7F9FDFFF7A9FDFFF7E7FD00BF25
:10113000FFF7E5FDFCE7000050EF00E014ED00E0F4
:1011400010B500F07FF9BDE81040FFF7B1BF000017
:1011500070B5204D0446A868844204D21E499422EA
:101160001EA000F02BF9E868844204D31A499522A6
:1011700022A000F023F9608820B1174996222AA006
:1011800000F01CF96168A86801448C420FD04A88BD
:101190006AB9EA6891420AD02A698A4200D12C6170
:1011A00000F108024B68261A636049688E50A168F6
:1011B0000144A1420CD04A88002A09D12A69A242DE
:1011C00000D129610B1A626808304A6061680B50CF
:1011D00070BD00002C0000208A3900082872745F5E
:1011E00075696E74385F74202A296D656D203E3DE7
:1011F00020686561705F7074720000002872745F0F
:1012000075696E74385F74202A296D656D203C20E5
:101210002872745F75696E74385F74202A29686556
:1012200061705F656E6400006D656D2D3E75736560
:1012300064203D3D203000002DE9F04F85B09A46F6
:10124000109CDDE90EB56606AE4601D5464B01E0C1
:10125000454B113BE606994601D524F00104E3070E
:1012600001D0302300E020234FF00006A7070493AD
:101270000BD5002A02DA52422D2606E0630701D57B
:101280002B2602E0230700D520264FF00003D2B121
:101290005FF00A07BAF10A0F1AD002F00F0C120918
:1012A000002A19F80C800DF8038003F10103F1D135
:1012B000AB4200DD1D464FF0200714F0110FABEBE1
:1012C00005020DD01AE030228DF800200123EFE74F
:1012D000B2FBF7F89446B2FBF7F207FB18CCDFE756
:1012E0003EB1002A05DD521E03E0884200D8077097
:1012F000401CB2F1000CA2F10102F6DC26B18842DA
:1013000001D8521E0670401CE40605D508E088424C
:1013100001D8049C0470401C141EA2F10102F6DCEA
:1013200030249D42A5F101050ADD884200D80470F1
:10133000401CF6E7884201D8E55C0570401C00E0DF
:101340006C461D1EA3F1010307DDBEF1000FF1D1B4
:1013500003E0884200D80770401C131EA2F101026E
:10136000F7DC05B0BDE8F08F713900081CB5142119
:101370000A200022CDE9000108494FF4806308A04B
:1013800001F0ABFA040004D10749C62207A000F01F
:1013900015F82046BDE81C4001F006BC41110008CC
:1013A0006D61696E00000000763500087469642084
:1013B000213D2052545F4E554C4C000038B50B4B2C
:1013C00000248DF800409C6824B101B0A446BDE81B
:1013D0003040604713460A46014605A000F0A4FCD1
:1013E0009DF800000028FBD038BD00002000002040
:1013F0002825732920617373657274696F6E206686
:1014000061696C65642061742066756E6374696FD0
:101410006E3A25732C206C696E65206E756D626561
:10142000723A2564200A000070B5044C044D02E0B5
:1014300020688047241DAC42FAD370BD243D0008CB
:10144000283D000870B5044C044D02E02068804738
:10145000241DAC42FAD370BD283D00082C3D000885
:1014600070B5084C266800F065F8050008D02068C3
:1014700008B100F009F84321284600F099F82560EA
:10148000304670BD2000002070B504004FF000050C
:1014900005D1144914A040F23512FFF78FFF204602
:1014A00000F092FE082805D00E4913A04FF49B725D
:1014B000FFF784FFA07E30B1401E10F0FF00A07641
:1014C00004D0002070BD4FF0FF3070BDE16A29B13B
:1014D00020468847050001D0A81D01D100202083A7
:1014E000284670BDDE35000864657620213D205217
:1014F000545F4E554C4C000072745F6F626A6563B6
:10150000745F6765745F7479706528266465762DED
:101510003E706172656E7429203D3D2052545F4FCC
:10152000626A6563745F436C6173735F4465766977
:10153000636500002DE9F041064601F02FFB08B17C
:1015400000F02EF9082000F02DFE050004D111490D
:101550007C2211A0FFF732FF55F8044F09E000BFCD
:10156000A4F10C0031460822074601F0D7F850B12B
:101570002468AC42F4D101F011FB08B100F01EF96F
:101580000020BDE8F08101F009FB08B100F016F978
:101590003846F6E79F350008696E666F726D6174B4
:1015A000696F6E20213D2052545F4E554C4C000017
:1015B00070B504000E464FF0000504D12549F42211
:1015C00025A0FFF7FBFE204600F0FEFD082804D012
:1015D0002049F52224A0FFF7F1FEA07DC0060FD41C
:1015E000616A49B120468847050005D00246214678
:1015F0002CA000F099FB2AE0E08A40F01000E08285
:10160000A07D000705D5207E000702D56FF00600FB
:1016100070BDA26A3AB1314620469047050006D017
:10162000A81D04D013E040F60F7006402683A07E6C
:10163000218B401C41F00801218310F0FF00A076AF
:1016400005D1044925A040F22312FFF7B7FE284632
:1016500070BD0000CF35000864657620213D205222
:10166000545F4E554C4C000072745F6F626A656344
:10167000745F6765745F7479706528266465762D7C
:101680003E706172656E7429203D3D2052545F4F5B
:10169000626A6563745F436C6173735F4465766906
:1016A00063650000546F20696E697469616C697AC2
:1016B00065206465766963653A2573206661696CA7
:1016C00065642E20546865206572726F7220636FA6
:1016D00064652069732025640A0000006465762D26
:1016E0003E7265665F636F756E7420213D20300029
:1016F0002DE9F04104001D4616460F4605D1144958
:1017000014A04FF4C372FFF759FE204600F05CFDB1
:10171000082805D00E4913A040F28712FFF74EFEAD
:10172000A07E58B1D4F834C0BCF1000F09D02B46CC
:10173000324639462046BDE8F04160474FF0FF3061
:1017400001E06FF0050000F079FF0020BDE8F081B6
:10175000FD35000864657620213D2052545F4E55CA
:101760004C4C000072745F6F626A6563745F6765FA
:10177000745F7479706528266465762D3E70617299
:10178000656E7429203D3D2052545F4F626A656347
:10179000745F436C6173735F4465766963650000D1
:1017A00010B5FEF72DFD044A5188491C5180BDE853
:1017B0001040FEF729BD0000E000002010B5FEF744
:1017C0001FFD09494A88521E12B24A80002A07DCCE
:1017D00000224A80FEF718FDBDE8104000F064BD0D
:1017E000BDE81040FEF710BDE000002070B5040019
:1017F0006ED0FEF705FD054600F04CFA48B13549BC
:1018000035A000F091FA33494FF407723CA0FFF77E
:10181000D5FD2846FEF7F8FCA00705D02D4939A0D4
:1018200040F21E22FFF7CAFD434DA868844202D34E
:10183000E868844205D3274940F21F223F48FFF75A
:10184000BDFD696809B120468847A86884423FD336
:10185000E86884423CD23A480C3C4FF0FF3100F03B
:101860002FFE60884FF4F55610B12088B04219D091
:1018700034A000F059FA238839A06288214600F08C
:1018800053FA608828B9134941A040F23E22FFF77D
:1018900095FD2088B04205D00E4940A040F23F227D
:1018A000FFF78CFD0020608026802869844200D2EA
:1018B0002C61A9686068AA69611A401A101AA861A7
:1018C0002046FFF745FCBDE870401D4800F0B8BD5C
:1018D00070BD00008239000846756E6374696F6ED2
:1018E0005B25735D207368616C6C206E6F74206281
:1018F00065207573656420696E204953520A0000A3
:101900003000000028282872745F75696E743332C5
:101910005F7429726D656D292026202852545F411D
:101920004C49474E5F53495A45202D2031292920E3
:101930003D3D2030000000002C000020383C000815
:10194000381B0020746F206672656520612062611B
:1019500064206461746120626C6F636B3A0A0000FA
:101960006D656D3A203078253038782C2075736598
:101970006420666C61673A2025642C206D6167697C
:101980006320636F64653A203078253034780A002C
:101990006D656D2D3E757365640000006D656D2D80
:1019A0003E6D61676963203D3D20484541505F4D74
:1019B00041474943000000000048704728010020CB
:1019C000004870472819002070B5FFF7E7F9114962
:1019D0004FF47A700968B1FBF0F0401EB0F1807FDF
:1019E00009D20D4B4FF0E021FF220725486100246A
:1019F0001A700D618C61FFF717FD08A0FFF730FD2D
:101A0000FFF7DEFF0446FFF7D7FF2146BDE8704031
:101A100000F0A8BE0C00002023ED00E07561727498
:101A2000300000007047000070B505462E482C1DA0
:101A3000016805F1280011B18847002853D0216CB6
:101A40002AA000F071F9616A2CA000F06DF9A16A7A
:101A50002EA000F069F9E16A30A000F065F9216B71
:101A600032A000F061F9616834A000F05DF9A1686E
:101A700036A000F059F9E16838A000F055F9216965
:101A80003AA000F051F961693CA000F04DF9A1695C
:101A90003EA000F049F9E16940A000F045F9216A53
:101AA00042A000F041F9616B44A000F03DF9A16B48
:101AB00046A000F039F9E16B48A000F035F928782C
:101AC000400706D501F06AF8014648A000F02CF95D
:101AD00002E04EA000F028F92878C00602D452A0F7
:101AE00000F022F9FEE770BD180100207073723A11
:101AF000203078253038780A000000007230303A03
:101B0000203078253038780A000000007230313AF1
:101B1000203078253038780A000000007230323AE0
:101B2000203078253038780A000000007230333ACF
:101B3000203078253038780A000000007230343ABE
:101B4000203078253038780A000000007230353AAD
:101B5000203078253038780A000000007230363A9C
:101B6000203078253038780A000000007230373A8B
:101B7000203078253038780A000000007230383A7A
:101B8000203078253038780A000000007230393A69
:101B9000203078253038780A000000007231303A61
:101BA000203078253038780A000000007231313A50
:101BB000203078253038780A000000007231323A3F
:101BC000203078253038780A00000000206C723A06
:101BD000203078253038780A000000002070633A01
:101BE000203078253038780A00000000686172647F
:101BF000206661756C74206F6E2074687265616414
:101C00003A2025730D0A0D0A000000006861726415
:101C1000206661756C74206F6E2068616E646C65FF
:101C2000720D0A0D0A000000465055206163746968
:101C30007665210D0A00000070B5121D0B4E0024C0
:101C4000054622F00700443840F82460641C112C3B
:101C5000FAD3002283634FF08073C0E90912C26295
:101C6000026342630260C0E90F5370BDEFBEADDE98
:101C700010B5FEF7C5FA064904460878401C0870FE
:101C8000486800B180472046BDE81040FEF7BCBA66
:101C90001400002001480078704700001400002064
:101CA00010B5FEF7ADFA064904460878401E0870E4
:101CB000886800B180472046BDE81040FEF7A4BA0E
:101CC0001400002010B50068143800F023FF002035
:101CD00010BD00002DE9F041144606460D460846A9
:101CE00000F0C0FF05F11407B4B1012C18D134681D
:101CF0000EE000BF95F83510A4F1140094F82120EF
:101D0000914204D21430394600F047F802E02468CA
:101D1000B442EFD1B44203D13946304600F03DF829
:101D20000020BDE8F08100000FB40F487F2170B59E
:101D300005AB049A01F0ACFA7F28034600D97F2353
:101D40000A4D286860B1048B074A44F040010183C2
:101D50000021FFF7CDFC2868048370BC5DF814FBFC
:101D60000148FFF75FFEF8E7B81A002020000020C6
:101D70000268516002680A6001604860704702684A
:101D8000516002680A6001604860704702685160F3
:101D900002680A60016048607047426811604268EA
:101DA0004A60416008607047D0E900124A60D0E99B
:101DB00000121160406000607047D0E900124A6074
:101DC000D0E9001211604060006070472DE9F05FBB
:101DD000050019D0FEF714FA0446FFF75BFF48B17F
:101DE000534954A0FFF7A0FF51495CA040F20B12E9
:101DF000FFF7E4FA2046FEF707FA594CED1C25F0F0
:101E000003066069864202D90020BDE8F09F0C2ECF
:101E100000D20C2653484FF0FF3100F051FB2169EE
:101E2000A068D4F814A08946091AAAEB060278E043
:101E300045186B88002B73D16B685B1A0C3BB3425F
:101E40006ED36B68012706F118024FF4F55B5B1A3D
:101E50000C3B93422CD38B194FF000080C33C21863
:101E60000AF10C0CA2F800B0A2F80280D5F80480A8
:101E7000C2E901816B606F805168614502D000F159
:101E800008028B50A16931440C31A161E2698A4298
:101E900000D2E1614D454A46A5F800B01AD111467D
:101EA000E2684B885BB1914209D049680144F8E788
:101EB0006F80291A6A68A369511A1944E5E79142AB
:101EC000216107D0488828B1194927A040F275122E
:101ED000FFF774FA234800F0B3FAE168A8190C3050
:101EE000884205D9124940F279122948FFF766FA6B
:101EF000A8070BD00E494FF4BD722648FFF75EFAD3
:101F00000B4925A040F27B12FFF758FA22681AB15C
:101F100005F10C003146904705F10C0075E7FFE72D
:101F200069688A4284D80F4800F08AFA6CE700009A
:101F3000A939000846756E6374696F6E5B25735D21
:101F4000207368616C6C206E6F74206265207573FD
:101F5000656420696E204953520A00003000000079
:101F60002C000020381B002028286C667265652034
:101F70003D3D20686561705F656E6429207C7C2032
:101F800028216C667265652D3E757365642929008C
:101F9000943C0008EC3B000828282872745F75699F
:101FA0006E7433325F74296D656D292026202852A6
:101FB000545F414C49474E5F53495A45202D2031CB
:101FC0002929203D3D203000034610B5C9B201E06B
:101FD00003F8011B521EFBD210BD00002DE9F04199
:101FE0000F460646FEF70CF90446FFF753FE48B1CC
:101FF0001E491FA0FFF798FE1C494FF4A47226A0AB
:10200000FFF7DCF92046FEF7FFF8304600F0CAF88B
:10201000050005D115494FF4A67220A0FFF7CEF9AF
:10202000E868FFF7D3FE04001ED0EA680021FFF73E
:10203000CBFF00202672082239466072204600F04D
:102040007DFB1C48016809B120468847FEF7D8F897
:1020500004F10C010646281DFFF78AFE3046FEF704
:10206000D3F82046BDE8F0810020FBE7DE39000808
:1020700046756E6374696F6E5B25735D207368616E
:102080006C6C206E6F7420626520757365642069C6
:102090006E204953520A000030000000696E666FDE
:1020A000726D6174696F6E20213D2052545F4E55F0
:1020B0004C4C00004C00002070B5040005D11249C2
:1020C00012A04FF4C372FFF779F9207A000605D504
:1020D0000D4913A040F28712FFF770F91B484168C1
:1020E00009B12046884700202072FEF789F805468E
:1020F00004F10C00FFF758FE2846FEF785F820464D
:10210000BDE87040FFF772BBF13900086F626A6585
:10211000637420213D2052545F4E554C4C0000000A
:1021200021286F626A6563742D3E7479706520267C
:102130002052545F4F626A6563745F436C617373CE
:102140005F53746174696329000000004C00002033
:1021500070B5040005D10C490CA040F22512FFF720
:102160002DF90F48416809B12046884700202072A8
:10217000FEF746F8054604F10C00FFF715FE284669
:10218000BDE87040FEF740B8CD3900086F626A655F
:10219000637420213D2052545F4E554C4C0000008A
:1021A0004C000020074A002102EB01131B788342F8
:1021B00002D102EB01107047491C0829F4DB002012
:1021C000704700006000002010B5040005D10549EB
:1021D00005A040F2BB12FFF7F1F8207A20F0800052
:1021E00010BD00001C3A00086F626A65637420210C
:1021F0003D2052545F4E554C4C0000002DE9F041FB
:10220000174605460E460846FFF7CCFF040004D1EA
:102210000F49FA220FA0FFF7D1F846F080003946A7
:1022200008222872284600F089FA1048016809B18E
:1022300028468847FDF7E4FF05F10C010646201DFE
:10224000FFF796FD3046BDE8F041FDF7DDBF000029
:10225000BE390008696E666F726D6174696F6E20B9
:10226000213D2052545F4E554C4C00004C00002044
:1022700010B5040005D106494FF4D47205A0FFF74C
:102280009DF8207A000601D5012010BD002010BD68
:10229000023A00086F626A65637420213D2052543F
:1022A0005F4E554C4C0000002DE9F041FDF7A8FFB2
:1022B000154C07466088F0B9A068FEF7EDFD13499C
:1022C000401E666851F83050143DB54213D020705E
:1022D0006560E26812B12946304690472846FEF70D
:1022E00017FE0B48007805F11C01002806F11C00C0
:1022F00006D0FDF78CFF3846BDE8F041FDF784BFFE
:10230000FDF785FFF7E70000E0000020581B0020E4
:102310001400002010B5040005D113494FF48E724B
:1023200012A0FFF74BF8FDF76BFF024694F834005C
:10233000134B20F00F00401C84F8340094F8351043
:1023400004F1140003EBC1014B6818604B68A361F2
:1023500048600C486161A16B836819438160BDE8E6
:1023600010401046FDF750BF583A00087468726577
:10237000616420213D2052545F4E554C4C000000BA
:10238000581B0020E000002010B5040005D11249C0
:1023900012A04FF4A572FFF711F8FDF731FF04F119
:1023A0001401D1E900235360D1E900231A60A1612F
:1023B00061610F4994F8352051F8323001EBC201C8
:1023C0008B4204D10B49A36B8A689A438A60BDE8AB
:1023D0001040FDF719BF0000723A0008746872657A
:1023E000616420213D2052545F4E554C4C0000004A
:1023F000581B0020E00000202DE9F04104001E469B
:1024000015460F4604D10949CA2209A0FEF7D6FF96
:1024100001213A462046FFF7F1FE04F11400A061C5
:1024200060610020A5836672BDE8F081693600080E
:1024300073656D20213D2052545F4E554C4C000079
:1024400070B5040005D1174917A040F2B312FEF78A
:10245000B5FF2046FFF7B8FE012805D011494FF41B
:10246000DA721548FEF7AAFF1448016809B1204640
:102470008847FDF7C5FE6169054604F114008142F5
:1024800007D0FFF71FFC2846FDF7BEFEFFF70CFF45
:1024900005E0A08B401CA0832846FDF7B5FE002078
:1024A00070BD0000AB36000873656D20213D2052E1
:1024B000545F4E554C4C0000A43B00085C000020CB
:1024C0002DE9F341040005D13B493CA04FF4A37230
:1024D000FEF774FF2046FFF777FE012805D0364946
:1024E00040F247123948FEF769FF3948016809B1DF
:1024F00020468847FDF784FE0646A08B28B1401E83
:10250000A0833046FDF780FE4FE0019840B1FDF713
:1025100077FE804600F042FB40F2671538B10FE0CD
:102520003046FDF771FE6FF00100BDE8FC812249E5
:1025300028A0FFF7F9FB204934A02A46FEF73EFF0A
:10254000FDF75EFE0746FFF7A5FB40B11A4930A034
:10255000FFF7EAFB18492DA02A46FEF72FFF384661
:10256000FDF752FE4046FDF74FFE00F017FB054613
:1025700000202946286304F11400627AFFF7AAFBC1
:102580000198002809DD05F14C000021074601AA49
:1025900000F094FC384600F07BFD3046FDF734FE39
:1025A000FFF782FE286B0028BFD12348016809B1DC
:1025B000204688470020B8E79F36000873656D20E5
:1025C000213D2052545F4E554C4C0000A43B000866
:1025D0005400002046756E6374696F6E5B25735DF1
:1025E000207368616C6C206E6F7420626520757357
:1025F0006564206265666F726520736368656475E3
:102600006C65722073746172740A000030000000FF
:1026100046756E6374696F6E5B25735D20736861C8
:102620006C6C206E6F742062652075736564206920
:102630006E204953520A00005800002070B504462D
:10264000FFF728FB044D20B900F0A8FA08B1046395
:1026500070BD6C6070BD00002000002009A008B5AE
:10266000FFF762FB0AA0FFF75FFB12A000900223B6
:102670000122032112A0FFF757FBBDE8084018A074
:10268000FFF752BB0A205C207C202F0A00000000CC
:102690002D205254202D2020202020546872656166
:1026A00064204F7065726174696E6720537973742A
:1026B000656D0A004D6179202039203230313900B2
:1026C000202F207C205C202020202025642E2564C3
:1026D0002E2564206275696C642025730A00000051
:1026E0002032303036202D203230313920436F7087
:1026F0007972696768742062792072742D746872C7
:10270000656164207465616D0A000000014600E0A7
:10271000491C0A78002AFBD1081A7047002310B51B
:1027200008E011F8013B0478E31A5BB223B9401CBE
:1027300014B1521E002AF4D1184610BD002A10B55B
:1027400007D0034611F8014B03F8014B2CB1521E80
:10275000F8D110BD03F8011B00E00021521EF9D191
:1027600010BD00002DE9F04106460F46C01C20F0C8
:10277000030421F00305FDF743FD8046FFF78AFAC5
:1027800040B11C491CA0FFF7CFFA1A49C52224A06A
:10279000FEF714FE4046FDF737FD182D23D9A5F1AD
:1027A0001800A0421FD32B1B1E4D00214FF4F552E1
:1027B000A3F10C00183BAC606B6101232280C4E9DB
:1027C0000101618061682144E9600A8001224B8037
:1027D00000234860886014A11548FFF70DFEA86823
:1027E0002861BDE8F0813A463146BDE8F04111A0CC
:1027F000FFF79ABA9539000846756E6374696F6E73
:102800005B25735D207368616C6C206E6F74206251
:1028100065207573656420696E204953520A000073
:10282000300000002C00002068656170000000008E
:10283000381B00206D656D20696E69742C206572EF
:10284000726F7220626567696E206164647265737D
:102850007320307825782C20616E6420656E6420AA
:102860006164647265737320307825780A00000013
:102870000A49002310B50A4C18464B8004EBC002ED
:10288000401C202852601260F8DB1F2008700348AB
:102890004B6010308B604060006010BDE000002095
:1028A000581B002010B5074CA068FEF7F5FA064942
:1028B000401E51F8300014386060BDE810401C30F4
:1028C000FDF7EBBCE0000020581B002001484060F1
:1028D000006070471001002070472DE9FF478946CE
:1028E0001D4690468246DDE90C7601460020FFF742
:1028F00075FB041E0DD02846FFF768FA60B10396F9
:1029000043468DE8A1004A4651462046FEF75EFB4D
:10291000204604B0BDE8F0872046FFF7CDFB00203D
:10292000F7E70000134870B50468FDF769FC054639
:102930002046FFF729FD042084F8340004F14C0000
:1029400000F014FB2046FFF793FC012801D1A06F93
:1029500058B1094804F11401FFF711FA2846FDF7B0
:1029600053FCBDE87040FFF79FBC2046FFF7F0FB2B
:10297000F4E70000E4000020F0000020054D0024F2
:1029800055F8240000B18047641C042CF8D300F0F3
:1029900003F8F4E7A81A002070B539E0FDF730FC21
:1029A0000446FFF777F940B11F4920A0FFF7BCF9B3
:1029B0001D49992227A0FEF701FD2046FDF724FCC2
:1029C000FDF71EFC0546FEF799FA40B32248016860
:1029D000A1F11404D1E900024260D1E900021060C3
:1029E00049600960FEF7DCFEA16F09B12046884707
:1029F0002046FFF73DFC01280FD0FEF7DFFE2846FA
:102A0000FDF702FCA06AFEF7F1FE2046FFF754FB3B
:102A1000FEF774FA0028C1D170BDFEF7CFFE28463C
:102A2000BDE87040FDF7F0BB5336000846756E6395
:102A300074696F6E5B25735D207368616C6C206ECA
:102A40006F74206265207573656420696E20495338
:102A5000520A000030000000F00000201FB52023C3
:102A600008481F22D9008DE80F00074A002380384C
:102A700006A100F00FF804B002488038BDE810400D
:102A800000F092B8A81900207D2900087469646CD0
:102A9000650000002DE9FF5F05009A4693468946D0
:102AA000DDE90E48DDE9107604D10E49E6220EA0DC
:102AB000FEF784FC24B90B49E72210A0FEF77EFC48
:102AC00000214A462846FFF799FBCDE90048CDE9A9
:102AD000027653465A4649462846FEF777FA04B02E
:102AE000BDE8F09F9C3A000874687265616420211B
:102AF0003D2052545F4E554C4C000000737461638E
:102B00006B5F737461727420213D2052545F4E5587
:102B10004C4C000070B5040005D1184918A040F2D3
:102B2000B622FEF74BFC2046FFF74EFB28B11349B7
:102B300040F2B7221748FEF741FC94F8340000F049
:102B40000F00022802D04FF0FF3070BDFDF758FB98
:102B5000054604F11400FFF730F904F14C0000F0D1
:102B60003DFB2846FDF750FB2046FFF7D3FB0A4804
:102B7000416809B120468847002070BD133B00081A
:102B800074687265616420213D2052545F4E554C3B
:102B90004C000000DC3C0008F80000200148006800
:102BA00070470000E400002010B5040005D117496B
:102BB0004FF4867216A0FEF701FC94F8340000076B
:102BC00005D0124917A040F20D12FEF7F7FB204680
:102BD000FFF7FAFA28B10D494FF487721F48FEF744
:102BE000EDFB94F83600012184F835000222814083
:102BF000A163204684F83420FFF78CFF1848006852
:102C000008B1FFF751FB002010BD0000AB3A0008EF
:102C100074687265616420213D2052545F4E554CAA
:102C20004C000000287468726561642D3E73746105
:102C30007420262052545F5448524541445F5354F7
:102C400041545F4D41534B29203D3D2052545F5428
:102C500048524541445F494E49540000DC3C00085D
:102C6000E400002070B5040005D11A491AA040F212
:102C70008B22FEF7A3FB2046FFF7A6FA28B11549E1
:102C80004FF423721948FEF799FB94F8340000F0D2
:102C90000F00012802D04FF0FF3070BDFDF7B0FAF1
:102CA000054694F8340020F00F00801C84F83400AE
:102CB0002046FFF769FB04F14C0000F08FFA28462C
:102CC000FDF7A2FA0A48016809B1204688470020AA
:102CD00070BD0000013B00087468726561642021CA
:102CE0003D2052545F4E554C4C000000DC3C000827
:102CF000F800002010B5040005D1154915A040F2D8
:102D0000E322FEF75BFB94F8340000F00F0002288A
:102D100005D00F494FF4397213A0FEF74FFB204640
:102D2000FFF752FA28B10A4940F2E5221D48FEF7A2
:102D300045FB6FF00100206304F11400FFF73DF83C
:102D40002046FFF7E7FABDE81040FFF7ADBA0000F4
:102D5000243B000874687265616420213D20525450
:102D60005F4E554C4C000000287468726561642DFC
:102D70003E7374617420262052545F54485245417A
:102D8000445F535441545F4D41534B29203D3D20F6
:102D900052545F5448524541445F53555350454E39
:102DA00044000000DC3C000870B5FDF729FA064637
:102DB0001348046894F8340000F00F00012819D17A
:102DC000D4E90501884215D004F114000546FEF748
:102DD000F4FF94F835000B4901EBC00041680D6029
:102DE00041686960456028603046FDF70DFAFFF7DD
:102DF0005BFA02E03046FDF707FA002070BD0000E4
:102E0000E4000020581B00200148006870470000C3
:102E100010000020094810B50168491C0160FFF747
:102E2000BDFE816C491E816403D1416C8164FFF752
:102E3000BBFFBDE8104000F003B800001000002008
:102E40002DE9F041FFF7E0FF0646FDF7D9F91A4DED
:102E50008046A5F10C0726E06069143C6FF0004144
:102E6000301A884222D2796809B120468847204624
:102E7000FEF715F9D4E907108847FFF7C5FFB968D1
:102E8000064609B120468847607A810708D5C10700
:102E900006D020F001006072204600F0F9F802E050
:102EA00020F0010060722C68AC42D5D14046BDE8EC
:102EB000F041FDF7A9B900001001002070B5040031
:102EC00015460E4605D1144914A04FF4E772FEF7DB
:102ED00075FA2046FFF778F9092805D00E4914A0A5
:102EE00040F2CF12FEF76AFA4EB1012E04D0022E44
:102EF00008D0032E0ED109E0606A28600AE0286835
:102F0000606207E0607A20F0020002E0607A40F040
:102F100002006072002070BD903B000874696D650E
:102F20007220213D2052545F4E554C4C0000000051
:102F300072745F6F626A6563745F6765745F7479EA
:102F40007065282674696D65722D3E706172656EBC
:102F50007429203D3D2052545F4F626A6563745F5F
:102F6000436C6173735F54696D65720070B50400E2
:102F700004D11349CF2213A0FEF720FA2046FFF711
:102F800023F9092804D00E49D02213A0FEF716FA1F
:102F90002046FFF76DF920B90949D1221DA0FEF79F
:102FA0000DFAFDF72DF905462046FEF778F828467C
:102FB000FDF72AF92046FFF7CBF8002070BD00008E
:102FC000533B000874696D657220213D2052545FA7
:102FD0004E554C4C0000000072745F6F626A65636E
:102FE000745F6765745F74797065282674696D65B0
:102FF000722D3E706172656E7429203D3D205254E1
:103000005F4F626A6563745F436C6173735F546999
:103010006D65720072745F6F626A6563745F697375
:103020005F73797374656D6F626A65637428267463
:10303000696D65722D3E706172656E7429000000C5
:103040002DE9F84304001E4690460F46DDE9089539
:1030500004D10949BA2209A0FEF7B0F909213A467C
:103060002046FFF7CBF84B463246414620460095B6
:10307000FEF708F8BDE8F883453B000874696D6504
:103080007220213D2052545F4E554C4C00000000F0
:10309000F8B5040005D1314931A04FF49972FEF71B
:1030A0008DF92046FFF790F8092805D02B4931A06B
:1030B00040F23312FEF782F9FDF7A2F805462046EA
:1030C000FDF7EDFF607A20F0010060722846FDF701
:1030D0009BF83748016809B120468847606A6FF05D
:1030E0000045A84205D31D4932A040F24312FEF725
:1030F00065F9FFF789FE616A0844A062FDF780F870
:10310000354A064600200092694602EBC002576825
:103110005DF820200DE01268D4F828C0A2EBC003AF
:103120005B69634503D0A3EB0C03AB4203D341F8C7
:103130002020BA42EFD128480C380168491C0160B0
:10314000009804F11401FEF721FE607A40F00100BE
:1031500060723046FDF758F80020F8BD733B000858
:1031600074696D657220213D2052545F4E554C4C60
:103170000000000072745F6F626A6563745F676568
:10318000745F74797065282674696D65722D3E7060
:103190006172656E7429203D3D2052545F4F626A12
:1031A0006563745F436C6173735F54696D6572002E
:1031B0005800002074696D65722D3E696E69745FF8
:1031C0007469636B203C2052545F5449434B5F4DFC
:1031D0004158202F203200001001002070B504005B
:1031E00005D1154915A040F2AB12FEF7E7F82046CD
:1031F000FEF7EAFF092805D00F494FF4D67214A054
:10320000FEF7DCF8607AC00713D02048016809B1E6
:1032100020468847FCF7F4FF05462046FDF73FFFB0
:103220002846FCF7F1FF607A20F001006072002070
:1032300070BD4FF0FF3070BD823B000874696D6552
:103240007220213D2052545F4E554C4C000000002E
:1032500072745F6F626A6563745F6765745F7479C7
:103260007065282674696D65722D3E706172656E99
:103270007429203D3D2052545F4F626A6563745F3C
:10328000436C6173735F54696D6572005C0000206C
:103290002DE9FF4F471880467F1E4FF0FF39474505
:1032A0004FF0200A83B004464FF0250B00D24F4662
:1032B00009E1252803D0BC4200D8207081E0002617
:1032C0000599491C059108782D2811D02B2812D07A
:1032D000202813D0232814D0302815D00A784D4642
:1032E000303A0A2A13D205A800F029F905461BE056
:1032F00046F01006E4E746F00406E1E746F008066B
:10330000DEE746F02006DBE746F00106D8E72A288C
:103310000AD10698491C0591011D06910568002DEA
:1033200002DA6D4246F010060598CDF8009001785B
:103330002E2917D1401C05900178A1F130020A2AEC
:1033400003D205A800F0FBF807E02A2908D1401CA9
:1033500005900698011D069100680090002801DA8A
:1033600000200090059A00201178682901D06C296E
:1033700002D1521C084605920A2311786F296FD09A
:103380000CDC63291FD004DC25297AD058290DD103
:1033900080E0642901D0692908D17FE0702961D0DB
:1033A00073292DD075297BD0782975D0BC4201D8DE
:1033B00084F800B0641C05980178D9B3BC4200D8E9
:1033C0002170641C7CE0F00608D450466D1E002D70
:1033D00004DDBC4200D82070641CF7E70698BC42AC
:1033E00010F8041B0690C8B200D82070504602E0C6
:1033F000BC4200D82070641C6D1E002DF8DC5FE01C
:10340000069808C8069003B93CA31846FFF77EF952
:103410000099002902DD884200DD0846F1060AD441
:1034200051468542A5F1010505DDBC4200D8217059
:10343000641CF6E750E0002106E0BC4201D81A788F
:103440002270491C5B1C641C8142F6DB514685429C
:10345000A5F1010534DDBC4200D82170641CF6E7FB
:1034600016E00EE0681C02D1082546F0010600981F
:10347000029610233946CDE90050069804C80690FC
:103480001AE0BC429DD884F800B09AE708E003E057
:10349000082305E046F04006102301E046F002064E
:1034A0006C2801D068281AD0069804C806903946BE
:1034B00000980296CDE900502046FDF7BDFE044677
:1034C0000598401C05900598007800287FF4F1AE1F
:1034D000BC420DD820700CE0401E0590F0E7069825
:1034E000B20730F8041B06908AB2E0D512B2DEE7CC
:1034F000387007B0A4EB0800BDE8F08F284E554C9B
:103500004C290000002070470020704700207047C1
:103510000020704710B5FCF773FEFEF755FAFFF771
:103520009DF8FFF7D3F9FFF7A3F9FDF71FFFFFF7AA
:10353000D3F9FFF793FAFFF7B5F9002010BD6FF04C
:103540002F030146002010B507E0541C0C6000EB6F
:103550008000127803EB400010440A681478303C75
:103560000A2CF2D310BD0000000000000000010290
:1035700003040607080972745F6170706C69636107
:1035800074696F6E5F696E69740072745F646576EA
:103590006963655F756E72656769737465720072E1
:1035A000745F6465766963655F66696E64007274F2
:1035B0005F6465766963655F64657374726F7900D3
:1035C00072745F6465766963655F696E69740072C1
:1035D000745F6465766963655F6F70656E007274B1
:1035E0005F6465766963655F636C6F7365007274B1
:1035F0005F6465766963655F726561640072745FBC
:103600006465766963655F77726974650072745F7B
:103610006465766963655F636F6E74726F6C007268
:10362000745F6465766963655F7365745F72785F04
:10363000696E6469636174650072745F646576695C
:1036400063655F7365745F74785F636F6D706C65DD
:1036500074650072745F7468726561645F69646C3C
:10366000655F6578637574650072745F73656D5F1F
:10367000696E69740072745F73656D5F646574610F
:1036800063680072745F73656D5F63726561746512
:103690000072745F73656D5F64656C65746500725C
:1036A000745F73656D5F74616B650072745F7365E1
:1036B0006D5F72656C656173650072745F73656DD3
:1036C0005F636F6E74726F6C0072745F6D7574659A
:1036D000785F696E69740072745F6D757465785F88
:1036E0006465746163680072745F6D757465785F9A
:1036F0006372656174650072745F6D757465785F7F
:1037000064656C6574650072745F6D757465785F6F
:1037100074616B650072745F6D757465785F726556
:103720006C656173650072745F6D757465785F6355
:103730006F6E74726F6C0072745F6576656E745F25
:10374000696E69740072745F6576656E745F646536
:10375000746163680072745F6576656E745F63722E
:10376000656174650072745F6576656E745F64652B
:103770006C6574650072745F6576656E745F736501
:103780006E640072745F6576656E745F72656376F1
:103790000072745F6576656E745F636F6E74726FCE
:1037A0006C0072745F6D625F696E69740072745F41
:1037B0006D625F6465746163680072745F6D625FFF
:1037C0006372656174650072745F6D625F64656CDD
:1037D0006574650072745F6D625F73656E645F77B8
:1037E0006169740072745F6D625F72656376007206
:1037F000745F6D625F636F6E74726F6C0072745F82
:103800006D715F696E69740072745F6D715F64657C
:10381000746163680072745F6D715F637265617477
:10382000650072745F6D715F64656C6574650072CC
:10383000745F6D715F73656E640072745F6D715F4C
:10384000757267656E740072745F6D715F72656327
:10385000760072745F6D715F636F6E74726F6C006F
:10386000000001000200010003000100020001004D
:103870000400010002000100030001000200010039
:103880000500010002000100030001000200010028
:103890000400010002000100030001000200010019
:1038A0000600010002000100030001000200010007
:1038B00004000100020001000300010002000100F9
:1038C00005000100020001000300010002000100E8
:1038D00004000100020001000300010002000100D9
:1038E00007000100020001000300010002000100C6
:1038F00004000100020001000300010002000100B9
:1039000005000100020001000300010002000100A7
:103910000400010002000100030001000200010098
:103920000600010002000100030001000200010086
:103930000400010002000100030001000200010078
:103940000500010002000100030001000200010067
:103950000400010002000100030001000200010058
:1039600030313233343536373839616263646566F5
:1039700000303132333435363738394142434445EB
:10398000460072745F6672656500706C75675F688B
:103990006F6C65730072745F73797374656D5F68C3
:1039A0006561705F696E69740072745F6D616C6CE3
:1039B0006F630072745F7265616C6C6F6300727428
:1039C0005F6F626A6563745F696E69740072745FC9
:1039D0006F626A6563745F646574616368007274C2
:1039E0005F6F626A6563745F616C6C6F636174655D
:1039F0000072745F6F626A6563745F64656C65749E
:103A0000650072745F6F626A6563745F69735F7388
:103A1000797374656D6F626A6563740072745F6F49
:103A2000626A6563745F6765745F7479706500725C
:103A3000745F6F626A6563745F66696E64005F726B
:103A4000745F7363686564756C65725F73746163DA
:103A50006B5F636865636B0072745F736368656452
:103A6000756C655F696E736572745F7468726561A9
:103A7000640072745F7363686564756C655F72651A
:103A80006D6F76655F746872656164005F72745F04
:103A90007468726561645F696E69740072745F74E2
:103AA00068726561645F696E69740072745F7468DE
:103AB000726561645F737461727475700072745FB3
:103AC0007468726561645F646574616368007274D0
:103AD0005F7468726561645F64656C6574650072CB
:103AE000745F7468726561645F736C6565700072A1
:103AF000745F7468726561645F636F6E74726F6C1B
:103B00000072745F7468726561645F737573706569
:103B10006E640072745F7468726561645F7265736D
:103B2000756D650072745F7468726561645F746955
:103B30006D656F75740072745F7468726561645F3F
:103B400066696E640072745F74696D65725F696E38
:103B500069740072745F74696D65725F6465746125
:103B600063680072745F74696D65725F64656C652B
:103B700074650072745F74696D65725F73746172ED
:103B8000740072745F74696D65725F73746F700036
:103B900072745F74696D65725F636F6E74726F6C5F
:103BA0000000000072745F6F626A6563745F67652E
:103BB000745F74797065282673656D2D3E7061722F
:103BC000656E742E706172656E7429203D3D2052C1
:103BD000545F4F626A6563745F436C6173735F53D4
:103BE000656D6170686F7265000000002872745F17
:103BF00075696E7433325F7429282872745F756931
:103C00006E74385F74202A296D656D202B2053490E
:103C10005A454F465F5354525543545F4D454D29C5
:103C200020252052545F414C49474E5F53495A4525
:103C3000203D3D20300000002872745F75696E746D
:103C4000385F74202A29726D656D203E3D202872F0
:103C5000745F75696E74385F74202A2968656170B5
:103C60005F707472202626202872745F75696E74E6
:103C7000385F74202A29726D656D203C202872748B
:103C80005F75696E74385F74202A29686561705F9A
:103C9000656E64002872745F75696E7433325F7488
:103CA000296D656D202B2053495A454F465F53546B
:103CB000525543545F4D454D202B2073697A652042
:103CC0003C3D202872745F75696E7433325F7429CD
:103CD000686561705F656E640000000072745F6FFC
:103CE000626A6563745F6765745F747970652828BC
:103CF00072745F6F626A6563745F74297468726559
:103D0000616429203D3D2052545F4F626A656374AF
:103D10005F436C6173735F54687265616400000097
:103D20001135000809350008053500080D35000873
:103D3000503D00080000002028010000DC0E0008B3
:103D4000783E000828010020301F0000EC0E00081B
:103D50000100000010000000000000000024F4003A
:103D60000000000000000000000000000000000053
:103D70000000000000000000000000000000000043
:103D80000000000000000000000000000000000033
:103D90000000000000000000000000000000000023
:103DA0000000000000000000000000000000000013
:103DB000000000006400002064000020800000007B
:103DC00001000000740000207400002020000000AA
:103DD0000200000084000020840000202400000075
:103DE0000300000094000020940000202000000048
:103DF00004000000A4000020A40000203000000007
:103E000005000000B4000020B400002034000000D1
:103E100008000000C4000020C40000204000000092
:103E200009000000D4000020D40000202C00000075
:103E30000000000000000000000000000000000082
:103E40000000000000000000000000000000000072
:103E50000000000000000000000000000000000062
:103E60000000000000000000000000000000000052
:083E700000000000000000004A
:04000005080001C925
:00000001FF
